:020000040800F2
:10000000380700204501000817290008412500088D
:1000100015290008230900088133000800000000AA
:10002000000000000000000000000000C92B0008D4
:1000300067090008000000003B290008CB2B0008DE
:100040005F0100085F0100085F0100085F01000810
:100050005F0100085F0100085F0100085F01000800
:100060005F0100085F0100085F0100085F010008F0
:100070005F0100085F0100085F0100082509000812
:10008000310900085F0100085F0100085F010008F6
:100090005F0100085F0100085F0100085F010008C0
:1000A0005F0100085F0100085F0100085F010008B0
:1000B000692C00085F0100085F0100085F0100086B
:1000C0005F0100085F0100085F0100085F01000890
:1000D0005F010008F5320008353300087533000869
:1000E0005F0100085F0100085F0100085F01000870
:1000F0005F0100085F0100085F0100085F01000860
:100100005F0100085F0100085F0100085F0100084F
:100110005F0100085F010008752C0008812C0008B1
:100120005F0100085F0100085F0100085F0100082F
:10013000DFF80CD000F06AFB00480047E53D0008FE
:10014000380700200648804706480047FEE7FEE7DC
:10015000FEE7FEE7FEE7FEE7FEE7FEE7FEE7FEE777
:10016000212C000831010008202A04DB203A21FA62
:1001700002F00021704721FA02F3D040C2F12002C0
:100180009140084319467047D2B201E000F8012BB4
:10019000491EFBD270470022F6E710B513460A4607
:1001A00004461946FFF7F0FF204610BD30B480EA40
:1001B000010202F0004530F0004221F0004013D06F
:1001C00090B1C30DD40DC2F31601C0F31600E41AAA
:1001D00041F4000140F400027D34914201D3641CDB
:1001E00000E04900002C02DA30BC002070474FF4D8
:1001F00000000023914201D3891A034340084FEACB
:100200004101F7D151B1914202D14FF0004105E0D7
:1002100002D24FF0010101E06FF0010103EBC45085
:10022000284430BC00F0BEB92DE9FE4F804681EA7B
:100230000300C00F0C46009021F0004123F0004560
:10024000B8EB0200A94105D24046214690461C4623
:100250000B46024623F00040104347D0270DC7F35A
:100260000A00C3F30A510290401A019040286BDA49
:10027000C3F3130040F4801B0098924620B1002382
:10028000D2EB030A63EB0B0B01985946C0F1400215
:10029000504600F066F906460D4650465946019A0A
:1002A00000F06EF910EB08006141002487EA11525A
:1002B00084EAE7731A4340D0009A62B3019A012A94
:1002C0004FEA075215DC001B61EB02014FF00042C0
:1002D00002EA0752CDE90042001C41F58011324686
:1002E0002B4600F0A5F903B0BDE8F08F404621464B
:1002F000F9E7001B61EB0201001C41F580130018B7
:100300005B412018A2F5001747EB030140EAD570C6
:10031000B6196D4111E06D084FEA360645EAC07521
:100320004FEA0752001B61EB0201001C41F58011EE
:1003300049084FEA30000019514132462B4603B0BC
:10034000BDE8F04F00F065B900980122400000239D
:10035000D0EB020263EBE073009821464FEAE074B1
:10036000B8EB000061EB0401E9E783F000435BE7D1
:1003700081F0004158E72DE9FE4F81EA030404F0C3
:10038000004421F0004100944FF0000B23F00043A3
:1003900050EA01045ED052EA03045BD0C3F30A546E
:1003A000C1F30A552C44A4F2F3340194A0FB025487
:1003B000C1F3130141F48011C3F3130343F4801319
:1003C00001FB024400FB034E840A970A44EA81546D
:1003D00047EA8357A4FB076802958D0A05FB07854A
:1003E0004FEA932C04FB0C542705029D4FEA065854
:1003F00047EA1637B5EB08056EEB070C870E920E31
:1004000047EA811742EA8312A7FB0201B6EB0B0110
:1004100064EB00042B0D43EA0C335E1844EB1C50D4
:10042000DA465146E7FB0201C5F313044FEA0B33EA
:1004300043EA14534FEA0432019C43EA0603A4F151
:100440000C040294009CCDE900B400F0F1F803B074
:10045000BDE8F08F00200146F9E7C10F80EAE070A7
:100460000844CA079623002100F0A5B8962300226D
:10047000114600F0A0B800F0004230F000400AD071
:10048000C10D01F56071C0F3160042EA0151C208C6
:1004900040071143704700200146704701F00043B8
:1004A00030B421F0004150EA010206D00A0DA2F555
:1004B0006072C1F31301002A02DC30BC00207047D7
:1004C000440F44EAC104C100E01830BC00EBC25044
:1004D00000F068B830B50B46014600202022012408
:1004E00009E021FA02F59D4205D303FA02F5491B02
:1004F00004FA02F52844151EA2F10102F1DC30BD18
:100500002DE9F05F0546002092469B468846064648
:10051000814640241BE02846414647462246FFF7D5
:1005200023FE53465A46C01A914110D3114618462D
:10053000224600F016F82D1A67EB01084F462246B6
:100540000120002100F00DF817EB00094E41201E9C
:10055000A4F10104DFDC484631462A464346BDE8A3
:10056000F09F202A04DB203A00FA02F100207047B5
:100570009140C2F1200320FA03F3194390407047E1
:10058000202A06DBCB17203A41FA02F043EAE07357
:1005900006E041FA02F3D040C2F120029140084344
:1005A000194670470029A8BF7047401C490008BF82
:1005B00020F00100704710B4B0FA80FC00FA0CF093
:1005C00050EA010404BF10BC704749B1CCF12004CB
:1005D00021FA04F411FA0CF118BF01212143084358
:1005E000A3EB0C01CB1D4FEA00614FEA102042BF84
:1005F000002010BC704700EBC35010440029A4BF7A
:1006000010BC7047401C490008BF20F0010010BC1E
:10061000704710B5141E73F1000408DA401C41F154
:10062000000192185B411A4301D120F0010010BD76
:100630002DE9F04D92469B4611B1B1FA81F202E0EC
:10064000B0FA80F220329046FFF78BFF04460F4647
:1006500040EA0A0041EA0B0153465A46084313D0C8
:10066000114653EA010019D0C8F140025046FFF785
:100670007BFD05460E46504659464246FFF771FF40
:10068000084305D0012004E020463946BDE8F08D3E
:100690000020054346EAE0762C4337430A98630579
:1006A000E40AA0EB08000022FD0A44EA47540A309D
:1006B00002D500200146E9E7010510196941DDE98D
:1006C000084500196941BDE8F04DA2E72DE9F04D5C
:1006D00081EA030404F0004B21F0004514464FF07A
:1006E000000A23F0004150EA050220D054EA01023A
:1006F0001DD0C5F30A570246C5F31303C1F3130017
:10070000C1F30A5640F4801543F48013A7EB0608A2
:10071000101BD64608F2FD3873EB050002D308F132
:10072000010801E092185B41B8F1000F03DA0020E4
:100730000146BDE8F08D00204FF480110646844646
:100740000EE0171B73EB050705D3121B63EB0503C4
:1007500006434CEA010C49084FEA300092185B410D
:1007600050EA0107EDD152EA030012D082EA0400F8
:1007700083EA0501084305D0101BAB4106D20122D4
:10078000002306E000224FF0004302E06FF0010278
:1007900053101AEB06004CEB085110EB0A0041EB2A
:1007A0000B01BDE8F04DFFF734BFC1F30A52C1F3AE
:1007B000130140F2FF3341F480119A4202DA002023
:1007C0000146704740F233439A42A2F2334202DCC0
:1007D0005242FFF7C9BCFFF7C4BE000030B5041E8B
:1007E00071F1000404DB4FF00044404264EB01016E
:1007F000141E73F1000405DB1C464FF00043524207
:1008000063EB0403994208BF904230BD064C074D8C
:1008100006E0E06840F0010394E8070098471034D0
:10082000AC42F6D3FFF788FC684900088849000805
:1008300070B521F0004303430CD0C1F30A550024E6
:10084000D5EB040564EB0403D617AD1AB34102DB04
:100850000020014670BD201841EB025170BD0EB55D
:10086000C10F80EAE0700844CA07002140F2334318
:100870008DE80E000A460B46FFF7DAFE03B000BD16
:100880002DE9F04D00231A461B1A8A4103DB002094
:100890000146BDE8F08DC1F30A52C1F3130141F4E2
:1008A00080154FF0000BD10702D100186D41521E88
:1008B0000027044640F2FF11384601EB620A3E462B
:1008C0008046024600204FF48011FFF74DFCC2190C
:1008D0007141BB1846EB0100B4EB030C75EB000C47
:1008E00004D3E41A65EB000517460E46241908F1F7
:1008F00001006D4180463428E3DDF91946EB06001E
:10090000091BA84103D24FF0FF32134601E0002239
:1009100013461BEB070046EB0A51BDE8F04DFFF70D
:1009200078BEFEE7014800F00DB90000500200203B
:10093000014800F007B900009402002030B590F89B
:1009400040500124AC40C56B6C6004686360436830
:10095000102B036803D099600068C26030BD9A60B4
:100960000068C16030BD70477047000070B5044634
:100970000021E2780846121D04E0235C401C194463
:10098000C9B2C0B28242F8D8205C884224D1A08883
:10099000124D40BAA885E08840BAE885208940BA5F
:1009A0002886608940BAFFF761FD0D4E3146FFF79A
:1009B000FDFB6863A08940BA00B2FFF74EFD3146E7
:1009C000FFF7F4FBA863E08940BA00B2FFF745FDEA
:1009D0003146FFF7EBFBE86370BD0000D802002052
:1009E0000000C84201680A6822F00E020A6001682D
:1009F0000A6822F001020A6090F84020C36B0121CE
:100A000001FA02F25A6080F82110002180F82010CB
:100A1000084670472DE9F05F90F821100024022964
:100A200003D004218163012485E001680A6822F073
:100A30000E020A6001680A6822F001020A603F4E55
:100A40003E4FB215DFF8F4C0DFF8F090DFF8ECA00D
:100A5000DFF8E8B0DFF8E4E00168783F1301150241
:100A6000ACF1640CA9F15009AAF13C0AABF1280BD6
:100A7000AEF1140E4FF48018B14227D9B9420ED00E
:100A8000614512D049451DD0514518D0594518D05F
:100A9000714501D1424615E0294EB14201D10122F2
:100AA00010E0274E1436B14201D110220AE0244E44
:100AB0002836B14206D0224A3C32914201D11A4630
:100AC00000E02A461E49091F0A602BE0B94213D0F4
:100AD000614517D0494522D051451DD059451DD0FB
:100AE000714501D142461AE0B14202D14FF0807205
:100AF00015E0134EB14201D1012210E0104E143620
:100B0000B14201D110220AE00D4E2836B14206D082
:100B10000B4A3C32914201D11A4600E02A4607496D
:100B200080394A60012180F82110002180F82010CE
:100B3000416B01B188472046BDE8F09F800002402C
:100B4000080402402DE9F05FC16B0A6801680B6878
:100B5000046C4FF0040808FA04F8844D844E854F65
:100B6000DFF814C2DFF81492DFF814A2DFF814B231
:100B7000DFF814E218EA020F65D05FEA437862D525
:100B80000A68920603D40A6822F004020A60DFF8B9
:100B9000F0814FF48062016808F114081301140217
:100BA000414524D9A9420DD0B1420FD0B9421AD043
:100BB000614515D0494515D0514501D1120312E0C8
:100BC000594501D104220EE0714501D140220AE0CD
:100BD0006D4D1435A94206D06B4A2832914201D19D
:100BE0001A4600E022466749091F0A6029E0A94227
:100BF00013D0B14215D0B94220D061451BD0494530
:100C00001BD0514502D14FF4800217E0414502D17B
:100C10004FF0806212E0594501D104220EE0714587
:100C200001D140220AE0584D1435A94206D0564A57
:100C30002832914201D11A4600E022464B49083938
:100C40004A60C16A71E04FF0020808FA04F818EA35
:100C5000020F70D05FEA83786DD50A68920606D4D9
:100C60000A6822F00A020A60012180F82110DFF8E8
:100C700010814FF40072016808F114081301140286
:100C8000414524D9A9420DD0B1420FD0B9421AD062
:100C9000614515D0494515D0514501D1120312E0E7
:100CA000594501D102220EE0714501D120220AE00E
:100CB000354D1435A94206D0334A2832914201D12C
:100CC0001A4600E022462F49091F0A6029E0A9427E
:100CD00013D0B14215D0B94220D061451BD049454F
:100CE0001BD0514502D14FF4001217E0414502D10B
:100CF0004FF0007212E0594501D102220EE0714519
:100D000001D120220AE0204D1435A94206D01E4A06
:100D10002832914201D11A4600E02246134908398F
:100D20004A60002180F82010816A00291CD0BDE8AB
:100D3000F05F0847FFE70825A540154214D01A07C1
:100D400012D50A6822F00E020A6090F84020C36BA8
:100D5000012101FA02F25A60816380F8211000211A
:100D600080F82010016BE0E7BDE8F09F080002402A
:100D70001C00024030000240440002405800024083
:100D80006C000240080402401C04024030B560B10F
:100D90001A4B026814219A4209D2194B1344B3FB2F
:100DA000F1F18900016417490AE0012030BD134BBD
:100DB0005B421344B3FBF1F1890001640F49083928
:100DC000C163022180F82110136843F6F0718B4350
:100DD000F0E901142143D0E902452C432143046981
:100DE000214344692143846921431943116000214F
:100DF0004163012242770177084630BD0804024072
:100E0000F8FFFDBF0000024070B5044690F82000D6
:100E1000002501280CD0012084F8200094F82160DE
:100E20000020012E06D084F820000225284670BD3F
:100E3000022070BD022684F82160A0632068066845
:100E400026F0010606602046FFF778FDE06A0028DC
:100E50002068016802D041F00E0106E021F0040193
:100E600001602068016841F00A01016020680168A2
:100E700041F001010160D9E72DE9F84FDFF8B8A191
:100E800000220AF1040B144601274FF00F090BF161
:100E9000040E00BF0B6807FA04F52B40AB4274D177
:100EA000DFF898C14E68A6EB0C0866452BD00DDC28
:100EB000032E34D005DC36B3012E19D0022E2FD1EB
:100EC0001BE0112E16D0122E2AD119E0B8F5881F7A
:100ED00019D006DCB8F5803F15D0B8F5801F1FD1BA
:100EE00011E0B8F5001F0ED0B8F5041F18D10AE0C4
:100EF000CA6815E0CA68121D12E0CA6808320FE01D
:100F0000CA680C320CE08A682AB1012A4FF0080244
:100F100003D0456104E0042202E0056100E0002204
:100F2000FF2B01D8064601E000F104064FEA8405D4
:100F300001D9A5F12005D6F800C009FA05F82CEA78
:100F4000080C02FA05F54CEA050CC6F800C04D681D
:100F5000ED006AD53A4DAE6946F00106AE61AD6965
:100F600024F0030605F001050095364D06EB050C4F
:100F7000DCF80850A6074FEA167809FA08F6B543D8
:100F8000314EB04202D100261AE04EE02F4EB04260
:100F900001D1012614E02E4EB04201D102260FE00D
:100FA0002C4EB04201D103260AE02B4EB04201D1B3
:100FB000042605E0294EB04201D1052600E00626B0
:100FC00006FA08F62E43CCF808604D68DAF800609F
:100FD000ED03554601D51E4300E09E432E604D684B
:100FE000AD0305D5DBF800601E43CBF8006004E0DC
:100FF000DBF800509D43CBF800504D68DEF80060F0
:10100000ED02754601D51E4300E09E432E604D68FB
:10101000AD0205D5084D0C352E681E432E6004E048
:10102000054E0C3635689D433560641C102CFFF46A
:1010300031AFBDE8F88F000000040140000011103E
:10104000001002400000014000080140000C014077
:10105000001001400014014000180140001C014034
:101060000AB1016170470904FBE70000014880688C
:101070007047000010000020024881680278114487
:101080008160704710000020074810B5016841F0EA
:1010900010010160032000F077F8002000F006F84E
:1010A00000F024F8002010BD0020024070B50D4D66
:1010B00004464FF47A712878B1FBF0F00A490968C8
:1010C000B1FBF0F000F014FB48B9102C07D200225D
:1010D0002146501E00F038F800206C6070BD0120E1
:1010E00070BD0000100000201C0000200E4808B554
:1010F000816941F001018161816901F00101009183
:10110000C16941F08051C161C06900F08050009018
:10111000052000F039F80548416821F0E06141F010
:101120000071416008BD0000001002400000014055
:1011300000F01F02012191404009800000F1E020F1
:10114000C0F8001170470000F0B40E4B1B680C464D
:10115000C3F30223C3F10705042D00D90425191D8B
:10116000072901D2002300E0DB1E012606FA05F163
:10117000491E214099409E40761E16403143F0BCE6
:1011800001F0CBBB0CED00E0064900F00702086857
:101190004FF6FF03184040EA0220034A104308605C
:1011A000704700000CED00E00000FA0570470000F9
:1011B0002DE9F047DFF8548105460E46D8F80000C7
:1011C00000F00700B0420CD2D8F8001021F007015F
:1011D0003143C8F80010D8F8000000F00700B04212
:1011E0006FD128684A4C810712D5400703D5606843
:1011F00040F4E06060602878000703D5606840F440
:10120000605060606068A96820F0F000084360608A
:101210002878C00744D06868012816D021680228C1
:1012200016D0890700294CDA616821F003010143D7
:101230006160FFF71BFF6968074641F288300129AA
:101240000ED00229814618D026E021688903E9E7FB
:101250008901E7E7FFF70AFFC11B494501D918E0FB
:1012600081466068C0F381000128F3D118E000BF17
:10127000FFF7FCFEC11B49450BD86068C0F3810035
:101280000228F5D10CE000BFFFF7F0FEC11B494575
:1012900002D90320BDE8F087606810F00C0FF3D18D
:1012A000D8F80010404601F00701B1420BD901689F
:1012B00021F0070131430160006800F00700B042EF
:1012C00001D00120E6E72878400705D56068E96885
:1012D00020F4E060084360602878000706D5606865
:1012E000296920F4605040EAC100606000F03CF8D9
:1012F0006168084AC1F30311515CC840064908609F
:101300000020FFF7D3FE0020C4E7000000200240C9
:1013100000100240C04800081C00002001490120C4
:10132000C8647047000042420448054900684968A3
:10133000044AC1F30221515CC84070471C000020E0
:1013400000100240D0480008044805490068496878
:10135000044AC1F3C221515CC84070471C00002000
:1013600000100240D048000812A185B00FC98DE8D6
:101370000F0014A0144A006804905168134801F04B
:101380000C03042B10D0082B0ED1C1F38343C903E7
:101390001DF803000AD5516804AAC1F34041515C0D
:1013A0000A4A5043B0FBF1F005B070470849484382
:1013B000FAE7000002030405060708090A0B0C0DF2
:1013C0000E0F1010010200000010024000127A00FF
:1013D00000093D0010B5044CA068000603D5FFF7D6
:1013E000E5FE8020A07210BD001002402DE9F84FEC
:1013F00004460078B94DC00748D06868C0F3810042
:10140000012807D06868C0F38100022809D1686804
:10141000C00306D52868800338D5606800286FD0DF
:1014200034E06068B0F5803F0BD010B1B0F5A02F6C
:1014300011D0286820F480302860286820F48020AB
:1014400002E0286840F480302860606888B1FFF7C7
:101450000DFE064609E0286840F480202860F0E789
:10146000FFF704FE801B642875D828688003F7D531
:101470000CE0FFF7FBFD064605E000BFFFF7F6FDB9
:10148000801B6428F0D828688003F7D42078944E15
:1014900080074FF001094FF000083BD5686810F055
:1014A0000C0F07D06868C0F38100022809D1686872
:1014B000C00306D42868800714D5206901281FD1ED
:1014C00010E02069B0B1C6F80090FFF7CFFD0746E5
:1014D00005E000BFFFF7CAFDC01B0228C4D828687A
:1014E0008007F7D52868616920F0F80040EAC1005C
:1014F00028600FE0C6F80080FFF7B8FD074606E059
:10150000E9E000BFFFF7B2FDC01B022823D828681E
:101510008007F7D4207800072CD57248A169D9B18B
:10152000C0F80090FFF7A2FD074604E0FFF79EFD1C
:10153000C01B02280FD8686A8007F7D56A484FF4A5
:10154000FA510068B0FBF1F0009000BF0098411E16
:101550000091FAD20EE080E0C0F80080FFF786FD2F
:10156000074604E0FFF782FDC01B022875D8686AB1
:101570008007F7D42078400760D5E8690027C000CD
:1015800008D4E86940F08050E861E869012700F07C
:101590008050009055480168C90513D401688346FE
:1015A00041F480710160FFF761FD824606E000BFF3
:1015B000FFF75CFDA0EB0A0064284ED8DBF80000C2
:1015C000C005F5D5E06801280AD008B1052813D078
:1015D000286A20F001002862286A20F0040002E056
:1015E000286A40F001002862E06841F2883B98B127
:1015F000FFF73CFD82460BE0286A40F004002862B9
:10160000EEE700BFFFF732FDA0EB0A0159455AD8BB
:10161000286A8007F6D50CE0FFF728FD824605E032
:10162000FFF724FDA0EB0A0159454CD8286A800732
:10163000F6D41FB1E86920F08050E861E06988B312
:101640006968C1F38101022945D00228C6F860808B
:1016500004D0FFF70BFD044638E034E0FFF706FD49
:10166000074604E0FFF702FDC01B02282BD82868BC
:101670008001F7D4206AB0F5803F05D16868A16881
:1016800020F4003008436860D4E908010843696821
:1016900021F4741108436860C6F86090FFF7E6FC17
:1016A000044606E015E000BFFFF7E0FC001B02283F
:1016B00009D828688001F7D50BE000BFFFF7D6FCFA
:1016C000001B022802D90320BDE8F88F286880019A
:1016D000F4D40020F8E70120F6E7000000100240F3
:1016E00000004242800442421C0000200070004082
:1016F00010B5401EB0F1807F01D3012010BD4FF026
:10170000E02460610F21601701F007F90020A0615B
:1017100007202061002010BD7047704730B590F859
:101720003C20012A20D0012280F83C20022380F8AE
:101730003D3003685C6824F070045C6003685C689A
:101740000D682C435C6003689C6824F080049C60F6
:1017500003689C6849680C439C6080F83D20002128
:1017600080F83C10084630BD022030BD10B50400A2
:1017700003D094F83D0010B107E0012010BD002017
:1017800084F83C00204600F00DF8022084F83D006B
:10179000211D206801F07AFA012084F83D00002024
:1017A00010BD000008B5154A0168154891420ED1D8
:1017B000C16941F01001C161C069002200F0100050
:1017C000009001213620FFF7BFFC362010E00D4AC3
:1017D000914211D1C16941F02001C161C06900226B
:1017E00000F02000009011463720FFF7ADFC3720B5
:1017F000BDE80840FFF79CBC08BD00000010004099
:1018000000100240001400400168CA6842F0010262
:10181000CA600068016841F0010101600020704762
:1018200010B50268B2F1804F19D12B49037F2B4CC0
:101830000968012B14D0022B11D1238B012B36D038
:10184000022B0CD1916B94F82620C2EB024211447A
:101850002162042100F062F9208B401C208310BD1E
:10186000A388012B0ED0022BF9D1516BA27CC2EBC5
:1018700002421144E160002100F050F9A088401CB0
:10188000A08010BD526BA2600B6A4FF6F572134038
:101890000B6201680B6A13400B620068016A016207
:1018A000A088401CA0802088401C208010BD926B26
:1018B000E2610B6A4FF65F7213400B6201680B6ABC
:1018C00013400B620068016A0162208B401C208378
:1018D000A08A401CA08210BD5000002028000020DB
:1018E0002DE9F041044690F83C000D4601283BD01C
:1018F000012684F83C60022084F83D009AB3042A53
:1019000044D02068082A53D0D5E90027E968036A43
:1019100023F480530362D0F81CC0036A2CF4407C8B
:101920004CEA07274FF6FF7C27F470470CEA013199
:101930003943770323F4005307EA02321A43C161A3
:1019400002622068C16921F44061C1612068C169F7
:10195000AA6841EA0221C16184F83D60002084F850
:101960003C00BDE8F08101E00220FAE7D5E9001271
:10197000EB68206801F09EFA2068816921F00C0173
:10198000816120688169AA6811430FE0D5E90012DE
:10199000EB68206801F0C4FA2068816921F4406195
:1019A000816120688169AA6841EA02218161D3E7E7
:1019B000D5E9002C2F7B016A21F480710162C16995
:1019C000036A21F0030141EA0C0121F0F00C390710
:1019D0004FF400774CEA116123F4007307EA022206
:1019E0001A43C16102622068C16921F00C01C16122
:1019F0002068C169AA681143ADE710B5040003D09F
:101A000094F83D0010B107E0012010BD002084F8DB
:101A10003C00204600F00CF8022084F83D00211D17
:101A2000206801F033F9012084F83D00002010BD4A
:101A300030B585B0002500950195029503950068A5
:101A4000B0F1804F3AD11E48C16941F00101C16136
:101A5000C16901F001010491816941F004018161D2
:101A6000816901F004010491816941F008018161FB
:101A70008069012400F0080004904FF400400090B9
:101A8000694602940F48FFF7F7F90820CDE90005F1
:101A9000694602940C48FFF7EFF90C48416821F4BD
:101AA000407141F0E06141F4807141600022012108
:101AB0001C20FFF749FB1C20FFF73AFB05B030BDA7
:101AC0000010024000080140000C014000000140ED
:101AD00010B50268044631B1042908D0082915D090
:101AE0000C2908D116E0D06840F0020002E0D0686E
:101AF00040F00400D0600122206801F00DF9206858
:101B0000016841F001010160002010BDD06840F083
:101B10000800EFE7D06840F01000EBE710B502686E
:101B2000044631B1042908D008291ED00C2908D157
:101B30001FE0D06820F0020002E0D06820F004002E
:101B4000D0600022206801F0E7F82068016A41F2C5
:101B50001112114207D1016A9210114203D101689A
:101B600021F001010160002010BDD06820F00800C4
:101B7000E6E7D06820F01000E2E770B504460068A0
:101B800001694FF00005C943890715D4C168C943ED
:101B9000890711D4E91E016101202077206880693E
:101BA0008007204602D0FFF73BFE04E000F0E2F899
:101BB000204600F083F9257720680169C943490769
:101BC00017D4C168C943490713D46FF004010161F8
:101BD000022020772068806910F4407F204602D0E0
:101BE000FFF71EFE04E000F0C5F8204600F066F99D
:101BF000257720680169C943090716D4C168C9431C
:101C0000090712D46FF008010161042020772068D1
:101C1000C0698007204602D0FFF702FE04E000F012
:101C2000A9F8204600F04AF9257720680169C943E0
:101C3000C90617D4C168C943C90613D46FF010018F
:101C40000161082020772068C06910F4407F204699
:101C500002D0FFF7E5FD04E000F08CF8204600F02C
:101C60002DF9257720680169C943C90708D1C168E2
:101C7000C943C90704D1891E0161204600F03CF91F
:101C800020680169C943090609D4C168C943090626
:101C900005D46FF0800101612046FFF73DFD20680B
:101CA0000169C943490609D4C168C943490605D435
:101CB0006FF040010161204600F0E4F920680169FD
:101CC000C94389060BD4C168C943890607D46FF09C
:101CD000200101612046BDE87040FFF71EBD70BDC8
:101CE00070B586B0002100910191029103911C4BC7
:101CF00002681C49C020022503241B4E9A421BD1B6
:101D00008A6942F004028A618A6902F0040204923C
:101D10008A6942F008028A61896901F00801CDE907
:101D20000341CDE9000569461048FFF7A5F8CDE964
:101D30000045694603940EE00D4B9A420ED18A6924
:101D400042F008028A61896901F00801CDE9034186
:101D5000CDE9000569463046FFF78EF806B070BD44
:101D60000004004000100240000C01400008014047
:101D700000080040704770B5044690F83C000D46DE
:101D800001280DD0012684F83C60022084F83D0033
:101D900042B1042A18D0082A2AD00C2A4DD139E0A1
:101DA000022070BD206800F0C3FF2068816941F007
:101DB000080181612068816921F004018161206846
:101DC00081692A69114311E0206800F0E1FF206871
:101DD000816941F4006181612068816921F4806139
:101DE0008161206881692A6941EA0221816124E0D8
:101DF000206801F003F82068C16941F00801C16161
:101E00002068C16921F00401C1612068C1692A69A3
:101E1000114311E0206801F025F82068C16941F400
:101E20000061C1612068C16921F48061C1612068DD
:101E3000C1692A6941EA0221C16184F83D6000203C
:101E400084F83C0070BD10B5040003D094F83D0048
:101E500010B107E0012010BD002084F83C002046AE
:101E600000F00CF8022084F83D00211D206800F0ED
:101E70000DFF012084F83D00002010BD08B50C4A7C
:101E800001680C48914207D1C16941F00201C1616A
:101E9000C06900F0020009E0074A914207D1C16918
:101EA00041F00401C161C06900F00400009008BD68
:101EB000000400400010024000080040704700008D
:101EC00010B504460068012200F026FF084920688A
:101ED000884202D00749884203D1416C41F4004155
:101EE00041642068016841F001010160002010BDDB
:101EF000002C0140003401402DE9F05F5C4C5B4B4D
:101F000002682188A08A5B4E00274FF001089A42A0
:101F100012D1814202D984F8028001E006D2A77072
:101F2000708800F101007080BDE8F09F7088002883
:101F3000FAD030807780F7E74F4B9A42F4D1A288ED
:101F40004E4D4FF6F57941F2111A40F2444B12B161
:101F5000032A3FD110E0A4F804802868016A01EA4E
:101F6000090101622868016A41F002010162002151
:101F70004248FFF7ADFD2DE0A2892389D21A2282C3
:101F800081420CD13088FEF771FA3D49FEF70EF917
:101F9000FEF771FA01F00CFFFEF780FAB0602868D6
:101FA000016A11EA0A0F07D1016A11EA0B0F03D186
:101FB000016821F001010160286847622868016A10
:101FC00001EA09010162A780A7742868016841F04D
:101FD00001010160208B4FF65F7998B30328A3D1EC
:101FE000208CA18B401AA0842088A18A88420CD121
:101FF0003088FEF73BFA2249FEF7D8F8FEF73BFAA5
:1020000001F0D6FEFEF74AFAB0602868016A11EACC
:102010000A0F07D1016A11EA0B0F03D1016821F001
:1020200001010160286847622868016A01EA090124
:102030000162278384F826702868016841F0010155
:10204000016071E7FFE7A4F818802868016A01EAD7
:10205000090101622868016A41F020010162BDE8BE
:10206000F05F04210548FFF733BD00000010004079
:102070002800002000000020001400405000002034
:102080000000C842704710B504460068416994F8E2
:102090003920C1F3C011212A0BD151B1416921F07E
:1020A00080014161206B08B1FEF79CFC204600F0E6
:1020B000B0FF2068416994F83A20C1F38011222AC8
:1020C0000BD151B1416921F040014161606B08B110
:1020D000FEF788FC204600F08EFF002010BD704700
:1020E00070B5026804461068D168536910F00F0F8C
:1020F00050D003F0010501F4907635435DD0C2075E
:1021000005D0CA0503D5E26B42F00102E263420743
:1021100005D5DA0703D0E26B42F00202E2638207E0
:1021200005D5DA0703D0E26B42F00402E26302074E
:1021300005D5DA0703D0E26B42F00802E263E26BF6
:10214000002A33D0800604D5880602D5204600F048
:1021500069FF20684069E16BC0F38010090700D473
:1021600028B3204600F047FF2068416949061AD588
:10217000416921F040014161606BA0B11B4941639D
:10218000606BFEF747FC002810D0606B416BBDE828
:1021900070400847830610D58B060ED52046BDE853
:1021A000704000F03FBF2046FFF799FF70BD20460A
:1021B000FFF795FF0020E06370BD030606D50B0610
:1021C00004D52046BDE8704001F030B84006F3D594
:1021D0004806F1D5D168204621F04001D160202188
:1021E00084F8391000F0ABF970BD0000572F0008DB
:1021F00070B5040004D094F83900002510B106E051
:10220000012070BD84F83850204600F023F82420C7
:1022100084F839002068C16821F40051C16020466B
:1022200000F04CFF2068016921F4904101612068B1
:10223000416921F02A0141612068C16841F40051DF
:10224000C160E563202084F8390084F83A0000205A
:1022500070BD00002DE9F04186B000240094019487
:10226000029403940546DFF860C1036857480221D1
:102270000322574E80274FF48068634537D1836926
:1022800043F480438361836903F480430493836947
:1022900043F0040383618069039200F0040004901A
:1022A0000802CDE9000169463046FEF7E5FDCDE9BB
:1022B0000084694630460294FEF7DEFD464E4548EE
:1022C000C6E90004C6E9024734617461B46130466E
:1022D000F461FEF75BFD08B1FEF746FB6E6300227A
:1022E000114625207562FEF72FFF25203DE0DFF81F
:1022F000ECC063453ED1C36943F40033C361C36995
:1023000003F400330493836943F004038361806919
:10231000039200F0040004900420CDE90001694616
:102320003046FEF7A9FD0820CDE900046946304695
:102330000294FEF7A1FD284E264844361430C6E923
:102340000004C6E9024734617461B4613046F46147
:10235000FEF71CFD08B1FEF707FB6E6300220221A9
:1023600026207562FEF7F0FE2620FEF7E1FE06B09D
:10237000BDE8F0811A4DAB42F9D1C36943F4802323
:10238000C361C36903F480230493836943F00803A2
:1023900083618069CDE9008100F00800CDE9032068
:1023A000104D69462846FEF767FDE814CDE90004A4
:1023B000694628460294FEF75FFD0122022127208C
:1023C000FEF7C2FE2720D0E700380140001002408F
:1023D0000008014058000240500200200044004024
:1023E00000480040000C0140F8B5044690F83A005F
:1023F00020283CD1C1B3BAB394F83800012836D0B4
:10240000012084F83800A162A2850025E56322201E
:1024100084F83A00636B17489862636B1648D86279
:10242000636B16481863606B134645630846666B1A
:10243000216802463046091DFEF7E6FC2068016867
:102440004168009184F83850C16841F48071C160DE
:102450002068416941F0010141612068416941F012
:10246000400141610020F8BDFFE70120FBE70220A9
:10247000F9E70000B12F0008ED2F0008672F0008D2
:10248000704770472DE9F843044690F839001F461D
:1024900016460D46202850D1A5B19EB194F83800BB
:1024A00001284AD0012084F838004FF00008C4F811
:1024B0003C80212084F83900FEF7D8FDA6848146AF
:1024C000E68426E00120BDE8F883E08C401EE0842D
:1024D000A0684B46B0F5805F4FF000024FF08001DE
:1024E0002046009703D000F0D2FEE8B90DE000F0DE
:1024F000CEFEC8B928882168C0F30800486020696A
:1025000008B16D1C05E0AD1C03E0216815F8010B56
:102510004860E08C0028D8D14B460022402120465C
:10252000009700F0B4FE08B10320CCE7202084F827
:10253000390084F838800020C5E70220C3E77047DF
:10254000FEE700000178A52905D18178A52902D1EF
:1025500001494078C8707047200000200D4808B538
:10256000416941F0010141614069002200F0010030
:10257000009011460F20FEF7E7FD0F20FEF7D8FD73
:10258000002211461020FEF7DFFDBDE808401020B4
:10259000FEF7CEBD0010024030B585B000242048C3
:1025A0000094019402940394816941F020018161B7
:1025B000816901F020010491816941F0100181617C
:1025C000816901F010010491816941F00401816188
:1025D000816901F004010491816941F00801816180
:1025E0008069104D00F00800049000220321284665
:1025F000FEF736FD032000900120CDE90104022002
:10260000039069462846FEF737FC0420CDE9000414
:10261000694628460294FEF72FFC05B030BD000045
:10262000001002400010014010B586B000241C4884
:10263000059404940094019402944FF08041039413
:10264000016041F61F41C0E901144FF6FF71C0E976
:1026500003148461FFF7D1F908B1FEF785F90494FA
:1026600004A90F480594FFF759F808B1FEF77CF963
:102670000120CDE9004002940022694608480394F5
:10268000FFF72EF908B1FEF76FF9042269460448F6
:10269000FFF726F9002801D0FEF766F906B010BD55
:1026A0005000002010B58AB0002407941C21684611
:1026B0000894FDF770FD2748254901604721C0E9CE
:1026C000011440F2E731C0E9031480218161FFF772
:1026D000BAFB08B1FEF748F9079407A91D4808940A
:1026E000FFF71CF808B1FEF73FF960200090642066
:1026F000CDE901040022694616480494FFF73BFB2C
:1027000008B1FEF731F9C82001900422694611484A
:10271000FFF731FB08B1FEF727F94FF496700190EF
:10272000082269460B48FFF726FB08B1FEF71CF9A3
:102730004FF4C87001900C2269460648FFF71BFB56
:1027400008B1FEF711F90348FFF7CAFA0AB010BD45
:10275000000400409000002010B58AB000240794C7
:102760001C2168460894FDF716FD1D481B490160B1
:102770004721C0E9011440F2E731C0E90314802188
:102780008161FFF760FB08B1FEF7EEF8079407A937
:1027900013480894FEF7C2FF08B1FEF7E5F8602081
:1027A00000907B20CDE90104002269460C48049486
:1027B000FFF7E1FA08B1FEF7D7F84FF4E4700190A3
:1027C000042269460648FFF7D6FA08B1FEF7CCF8AE
:1027D0000348FFF785FA0AB010BD0000000800406A
:1027E000D00000201CB500240E4800940C49019430
:1027F00001604721C0E9011409218461C160FEF72D
:10280000B5FF08B1FEF7B0F8009469460548019499
:10281000FEF784FF002801D0FEF7A6F81CBD0000DB
:1028200000100040100100201CB500240E48009448
:102830000C49019401604721C0E9011463218461BE
:10284000C160FEF793FF08B1FEF78EF80094694669
:1028500005480194FEF762FF002801D0FEF784F8D6
:102860001CBD000000140040500100200C4810B5B1
:102870000A4901604FF416514160002181600C2229
:10288000C160C0E904128161C161FFF7B1FC002899
:1028900003D0BDE81040FEF767B810BD0038014016
:1028A000900100200C4810B50A4901604FF4E13155
:1028B0004160002181600C22C160C0E90412816185
:1028C000C161FFF795FC002803D0BDE81040FEF77A
:1028D0004BB810BD00440040D00100200C4810B59A
:1028E0000A4901604FF4E1314160002181600C220E
:1028F000C160C0E904128161C161FFF779FC002861
:1029000003D0BDE81040FEF72FB810BD00480040CE
:1029100010020020FEE7FEF75DBD0907090E002842
:1029200006DA00F00F0000F1E02080F8141D704777
:1029300000F1E02080F800147047704770B55248ED
:10294000524CC07880B121460128898A7ED0022865
:102950007DD14FA000F016FDBDE870400A23032290
:1029600051495248FFF78EBD514D686BFDF783FD0D
:1029700002460B464FA000F005FD0A2303224A49F8
:102980004A48FFF77FFDE86BFDF775FD02460B46F1
:102990004DA000F0F7FC0A23032243494348FFF708
:1029A00071FDA86BFDF767FD02460B464BA000F0DA
:1029B000E9FC0A2303223C493C48FFF763FD208AD7
:1029C000FDF754FD4A4D2946FDF7F0FBFDF753FD99
:1029D00002460B4647A000F0D5FC0A2303223249E9
:1029E0003248FFF74FFDA08CFDF740FD2946FDF76B
:1029F000DDFBFDF740FD02460B4645A000F0C2FCA2
:102A00000A23032228492948FFF73CFD264E361F9A
:102A10003088FDF72BFD2946FDF7C8FBFDF72BFDA0
:102A200002460B4641A000F0ADFC0A230322311DF3
:102A30001E48FFF727FDA18A43A000F0A3FC0A234C
:102A40000322311D1948FFF71DFD01E017E019E0D1
:102A5000B068FDF710FD02460B4641A000F092FC65
:102A60000A230322311D1148FFF70CFDA07801282D
:102A700003D042A000F086FC6EE747A0FAE74908C1
:102A80004CA067E770BD0000200000202800002057
:102A900074302E5072696E74427566663D224E75B2
:102AA0006D3A2564220000000400002090010020FF
:102AB000D802002074302E5072696E7442756666BA
:102AC0003D22252E3266220074312E5072696E74BA
:102AD000427566663D22252E3266220074322E50E3
:102AE00072696E74427566663D22252E326622003A
:102AF0000000C84274332E5072696E744275666667
:102B00003D2253313A252E3266206D73220000009B
:102B100074342E5072696E74427566663D2253326B
:102B20003A252E3266206D732200000074352E5037
:102B300072696E74427566663D2254696D3A252E3F
:102B40003166206D7322000074392E5072696E74E4
:102B5000427566663D224E756D3A2564220000007E
:102B60007431302E5072696E74427566663D224132
:102B70006E676C653A252E32662200007431312E64
:102B80005072696E74427566663D224469723A3CC1
:102B90002D283031292200007431312E5072696E97
:102BA00074427566663D224469723A2D3E28313082
:102BB0002922000074302E5072696E744275666668
:102BC0003D22543A256422007047FEF755BA30B5CD
:102BD0008FB028216846FDF7DEFA14210AA8FDF718
:102BE000DAFA01210804CDE900100024029402253C
:102BF0000491CDE907504FF4E01009906846FEF7C4
:102C0000F5FB0F20CDE90A056802CDE90C40022151
:102C10000AA80E94FEF7CCFAFEF780FB0FB030BD89
:102C20000D48016841F00101016041680B4A114003
:102C3000416001680A4A11400160016821F4802165
:102C40000160416821F4FE0141604FF41F01816081
:102C50000449C00308607047001002400000FFF8FC
:102C6000FFFFF6FE08ED00E00148FEF786BF00001A
:102C7000500000200148FEF780BF00001001002036
:102C80000148FEF77ABF000050010020F0B502684D
:102C90001C4B1D4D1D4E1E4F1E4C4FF0804C98423C
:102CA00009D0A04207D0604505D0A84203D0B04269
:102CB00001D0B84204D122F0700E4A6842EA0E02F6
:102CC000984209D0A04207D0604505D0A84203D061
:102CD000B04201D0B84203D122F44075CA682A43F9
:102CE00022F080054A692A4302608A68C2620A6843
:102CF0008262984201D0A04201D109690163012199
:102D00004161F0BD002C014000040040000800407B
:102D1000000C00400034014010B50123046A8B40D0
:102D20009C430462036A8A401343036210BD00009F
:102D3000F0B5026A22F001020262036A4268846905
:102D4000124E24F073050C682C4323F002058B68A7
:102D50002B430D4DA84201D0B04205D123F0080706
:102D6000CB683B4323F00403A84201D0B04205D115
:102D70004D6922F4407215438A692A434260846196
:102D8000496841630362F0BD002C014000340140FA
:102D9000F0B5026A22F010020262026A4368846996
:102DA0000D6824F4E64444EA05248D6822F02002EC
:102DB00042EA05120F4D104EA84201D0B04206D192
:102DC000CF6822F0800242EA071222F04002A842B5
:102DD00001D0B04207D14D6923F4406343EA850333
:102DE0008D6943EA850343608461496881630262B7
:102DF000F0BD0000002C014000340140F0B5026A33
:102E000022F480720262026A4368C46922F400728A
:102E100024F073050C68124E2C438D6842EA05229B
:102E20000E4DA84201D0B04206D1CF6822F4006214
:102E300042EA072222F48062A84201D0B04207D1C0
:102E40004D6923F4405343EA05138D6943EA0513A2
:102E50004360C4614968C1630262F0BD002C014057
:102E60000034014030B5026A22F480520262046AE2
:102E70004268C3690D6823F4E64343EA05238D687D
:102E800024F4005444EA0534084DA84202D0084D09
:102E9000A84204D14D6922F4804242EA8512426080
:102EA000C36149680164046230BD0000002C014028
:102EB0000034014070B5046A24F00104046284699E
:102EC000056A124EB0420ED0114EB0420BD0B0F196
:102ED000804F08D00F4EB04205D00F4EB04202D006
:102EE0000E4EB04203D124F00304144301E044F039
:102EF00001041A0724F0F00444EA126225F00A03E0
:102F000001F00A0119438261016270BD002C014089
:102F1000003401400004004000080040000C004064
:102F200030B5046A24F0100404628469056A24F44C
:102F3000407444EA022222F470444FF6FF7202EA1F
:102F400003322243A02425F0A00304EA011119430F
:102F50008261016230BD10B5406A0021C185C18423
:102F6000FFF7BDF810BD70B5446A2068406994F859
:102F70003910C0F3C0100025212904D118B1E5840F
:102F8000204600F046F82068406994F83A10C0F3F3
:102F90008010222904D118B1E585204600F02BF8D5
:102FA000E06B40F01000E0632046FFF798F870BD3A
:102FB00010B50146406A09680968890613D40021E2
:102FC000C1850168CA6822F48072CA6001684A69D2
:102FD00022F001024A6101684A6922F040024A6116
:102FE000202180F83A10FFF74BFA10BD10B5406A67
:102FF000FFF747FA10BD0168CA6822F49072CA60F0
:1030000001684A6922F001024A61202180F83A10E1
:1030100070470168CA6822F0C002CA60202180F8A7
:103020003910704710B590F83A10222901D00220CB
:1030300010BD8168B1F5805F11D001690029016878
:103040001FD0496801F07F03816A4A1C82620B70BD
:10305000C18D491E0904090CC18518D02BE00269F5
:10306000816A002A0268526805D0D2B20A80816A59
:10307000491C8162ECE7C2F308020A80816A891C5C
:10308000F7E74A68816A4B1C83620A70E0E70168CF
:10309000CA6822F02002CA600168CA6822F48072FD
:1030A000CA6001684A6922F001024A61202180F861
:1030B0003A10FFF7E5F9002010BD00002DE9F041BE
:1030C000044600680169E26821F44051114301613E
:1030D0002169A0680843616908432168CA6841F210
:1030E0000C639A430243CA6020684169A26921F4D3
:1030F0004071114341614C49206864253226884261
:103100003CD1FEF721F900EBC00101EB0010616832
:103110008900B0FBF1F7FEF717F900EBC00101EBF6
:1031200000106168B0468900B0FBF1F0B0FBF5F02B
:103130006FF01801484307EB800106EB0110B0FB6C
:10314000F5F000F0F006FEF7FFF800EBC00101EB30
:10315000001061688900B0FBF1F0B0FBF5F006EB00
:103160000016FEF7F1F800EBC00101EB00106168FA
:103170008900B0FBF1F7FEF7E7F83BE0FEF7D4F883
:1031800000EBC00101EB001061688900B0FBF1F7B2
:10319000FEF7CAF800EBC00101EB00106168B04611
:1031A0008900B0FBF1F0B0FBF5F06FF01801484377
:1031B00007EB800106EB0110B0FBF5F000F0F00624
:1031C000FEF7B2F800EBC00101EB00106168890066
:1031D000B0FBF1F0B0FBF5F006EB0016FEF7A4F83B
:1031E00000EBC00101EB001061688900B0FBF1F752
:1031F000FEF79AF800EBC00101EB0010616889004E
:10320000B0FBF1F0B0FBF5F06FF01801484307EBAD
:10321000800108EB0110B0FBF5F0216800F00F0011
:1032200030448860BDE8F0810038014090F83910E2
:10323000212901D0022070478168B1F5805F016AC1
:103240000BD04A1C0262026809785160C18C491E89
:103250000904090CC1840ED017E009880268C1F383
:103260000801516001690029016A02D0491C01620C
:10327000ECE7891CFBE70168CA6822F08002CA609B
:103280000068C16841F04001C160002070472DE92D
:10329000F041984617460E460446069D1DE0681C00
:1032A0001BD02DB1FDF7E2FEA0EB0800A84214D917
:1032B0002068C16821F4D071C1602068416921F0A3
:1032C00001014161202084F8390084F83A0000208F
:1032D00084F838000320BDE8F0812068006836EAF1
:1032E000000004D00020B842D9D00020F3E701202C
:1032F000F9E700000C4810B50068016840680A480A
:10330000FEF7C1FE0948FFF71DF909494FF44010C7
:103310004860032205490448FFF766F8BDE81040FD
:103320000148FEF7DDBE00009001002020000020D3
:10333000000002400C4810B50068016840680A4867
:10334000FEF7A1FE0948FDF711FB09494FF44010B3
:103350004860142205490448FFF746F8BDE81040CC
:103360000148FEF7BDBE0000D0010020D8020020B9
:10337000000002400148FEF7B3BE0000100200202A
:10338000FEE700000FB4054B10B503A9044A0298EC
:1033900000F06AF910BC5DF814FB0000993D0008CC
:1033A0000C000020490050EAC12018BF04204A0D3B
:1033B00018BF40F0010040F2FF72B2EB515F08BF4E
:1033C00040F00200012808BF052070472DE9F041B8
:1033D0004F1E00EBC7010446D1E9000115461E4609
:1033E00037F006020DD02A463346FCF7C4FF7F1E95
:1033F00004EBC703D3E90023FCF716FF37F00602FE
:10340000F1D1022F25D0042F13D0062F18BFBDE80D
:10341000F0812A463346FCF7AEFFD4E90A23FCF7D5
:1034200003FF2A463346FCF7A6FFD4E90823FCF73E
:10343000FBFE2A463346FCF79EFFD4E90623FCF741
:10344000F3FE2A463346FCF796FFD4E90423FCF743
:10345000EBFE2A463346FCF78EFFD4E90223FCF745
:10346000E3FE2A463346FCF786FFD4E90023BDE895
:10347000F041FCF7D9BE0000002213461046014976
:10348000FDF724B90000F03FFCF7CEBE0022134642
:1034900010461146FDF71AB940F2013200204FF0F4
:1034A000E041FDF7C5B90000024A00201107FDF711
:1034B000BFB9000001FDFFFF02E008C8121F08C1EC
:1034C000002AFAD170477047002001E001C1121FA5
:1034D000002AFBD1704700000149086070470000D6
:1034E000240000202DE9FF5F82B00021DDE90430D7
:1034F000020DDDF840B0034318D044F61050A2F29C
:10350000FF3242431514119801281FD0A5EB0B0080
:10351000401C5FEA000A4FF000064E4FDFF838917A
:10352000B046504615D5CAF1000413E011980124A5
:103530004AA3012801D16FEA0B010298119AC0E950
:103540000031C0E9024206B0BDE8F09FCBF10000B7
:10355000DFE704460021404A491842EB0450CDE918
:10356000001012E0E00707D032463B46404649468D
:10357000FCF701FF8046894632463B461046194615
:10358000FCF7F9FE06460F466410002CEAD1DDE98F
:103590000401DDE90023BAF1000F06DAFCF7EBFEC7
:1035A00042464B46FCF7E7FE05E0FDF78FF8424642
:1035B0004B46FDF78BF804460E460022284BFDF7DC
:1035C0000DF903D84FF0FF30014607E00022254BEC
:1035D00020463146FCF728FEFDF7E7F8102409E005
:1035E000002C0ADB0A220023FCF78AFF039B3032FF
:1035F0001A55641E50EA0102F2D1641C039AC4F108
:1036000011031444119A012A03D0012208430DD159
:103610000AE0084304D000204FF0110B119072E72C
:10362000A3EB0B056D1E0DE05B4504DD4FF00002C2
:1036300005F1010504E003DA4FF00002A5F10105F0
:10364000002AECD002981199C0E90231C0E9004586
:1036500079E70000000014400000F03F3000000057
:103660000000F0430000E03F2DE9FF4F95B09B467E
:103670008946064600250FE2252877D100242746F3
:10368000F84A0121059400E0044316F8013F203B6D
:1036900001FA03F01042F7D130782A2811D06FF0E8
:1036A0002F033078A0F13002092A16D8059A44F089
:1036B000020402EB820203EB42021044761C0590E6
:1036C000EFE759F8042B0592002A03DA504244F43C
:1036D0000054059044F00204761C30782E2816D150
:1036E00016F8010F44F004042A280DD06FF02F02C1
:1036F0003078A0F13003092B09D807EB870302EBE0
:103700004303C718761CF3E759F8047B761C30781E
:103710006C280FD006DC4C2817D068280DD06A28FA
:1037200014D104E0742810D07A280FD10DE044F4AD
:1037300000140AE044F4801401E044F44014727868
:10374000824202D104F58014761C761C30786628FB
:103750000BD013DC582877D009DC002875D0452819
:10376000F6D04628F4D047281AD19DE118E0632806
:1037700035D0642879D0652812D195E1702873D0AE
:1037800008DC6728F1D069286FD06E280DD06F282B
:1037900006D1B5E073282CD0752875D0782874D060
:1037A0005A46179990476D1C75E1C4F302500228E0
:1037B00009D003280DD0D9F8001004280DD00D60D1
:1037C00009F1040967E1D9F80010EA17C1E90052CC
:1037D000F6E7D9F800100D80F2E70D70F0E719F860
:1037E000041B8DF8001000208DF80100EA4601202E
:1037F00003E059F804AB4FF0FF3061074FF00001D0
:1038000002D40DE008F101018846B9420FDA804583
:10381000F8DB1AF808100029F4D108E008F10101DA
:1038200088468142FADB1AF808100029F6D105987B
:103830005B46A0EB080721463846179A00F094FA39
:10384000284400EB080507E04DE029E10DE01AF8F7
:10385000010B5A4617999047B8F10108F7D25B4619
:1038600021463846179A13E142E00A220092C4F337
:1038700002524FF0000A022A08D059F804CB032A5A
:103880004FEAEC710AD00DE029E02AE009F10701C6
:1038900021F00702F2E802C1914609E00FFA8CFC20
:1038A0004FEAEC71042A03D14FFA8CFC4FEAEC7119
:1038B000002907DA0A460021DCF1000C61EB020165
:1038C0002D2202E0220504D52B228DF804200122AE
:1038D00003E0E20701D02022F7E7904659E00A21F1
:1038E00002E010220DE010214FF0000A00910BE0E1
:1038F00010224FF0000A44F004040827009203E06D
:1039000008224FF0000A0092C4F30252022A05D0A6
:1039100059F804CB0021032A08D009E009F1070176
:1039200021F00702F2E802C1914605E01FFA8CFC83
:10393000042A01D10CF0FF0C4FF00008220728D513
:10394000702806D0009B83F0100353EA0A0305D0C9
:103950000EE040228DF80420012208E05CEA01021A
:1039600006D030228DF804208DF805000222904602
:10397000009B83F0080353EA0A030AD15CEA0102C0
:1039800001D1620705D530228DF804204FF00108DF
:103990007F1E582804D034A003900EA802900DE09A
:1039A00036A0F9E753466046009AFCF7A9FD844625
:1039B0000398825C0298401E029002705CEA01004B
:1039C000F0D1029806A9081A00F1200A600702D572
:1039D00024F4803400E00127574502DDA7EB0A00FC
:1039E00000E0002000EB0A01009005984144401AD5
:1039F0000590E00306D45B462146179A059800F02F
:103A0000B3F90544002706E001A85A46C05D17999E
:103A100090476D1C7F1C4745F6DBE0030CD55B46E9
:103A20002146179A059800F09FF9054404E03020DC
:103A30005A46179990476D1C0099481E009000291E
:103A4000F5DC08E0029802995A460078491C029178
:103A5000179990476D1CBAF10001AAF1010AF1DC37
:103A600065E1000009280100303132333435363742
:103A700038396162636465660000000030313233BA
:103A8000343536373839414243444546000000005A
:103A900000F058F90544761C307800287FF4ECAD2E
:103AA00019B02846BDE8F08F620700D4062709F157
:103AB000070222F0070CFCE80223E14603F000486D
:103AC0005FEA080C02D00FF2702C0DE05FEA045C94
:103AD00002D50FF2682C07E05FEAC47C02D00FF237
:103AE000602C01E0AFF2700C4FF0FF3823F0004380
:103AF000CDF850C065280CD006DC452809D04628F2
:103B00001DD047283DD13DE0662818D067287ED1DA
:103B100038E00021112F01DB112000E0781CCDE9F5
:103B2000000106A90EA8FFF7DDFCDDE90F010E9AE2
:103B300003910021009207F1010A04914DE04FF03A
:103B400000400097CDE9011006A90EA8FFF7CAFCB6
:103B5000DDE90F0203920E9B11990022DDF80CA003
:103B60000093049211B9791C00EB010AB7EB0A002B
:103B700004D4C0F1FF3007F1010A0490AAEB07005A
:103B8000019044E0012F00DA01270021112F01DD0F
:103B9000112000E03846CDE9000106A90EA8FFF784
:103BA000A1FCDDE90F010E9A03910021049100921E
:103BB000BA4621070CD40399514500DA8A46BAF176
:103BC000010F05DD009AAAF10101515C302908D0EE
:103BD000B84202DA10F1040F06DA0121CDE9011032
:103BE00015E0AAF10101E9E7002805DC0499014488
:103BF0000491AAEB000102E0411C514500DD8A4618
:103C00000499401A401C01904FF000400290200798
:103C100004D40198504501DBCDF8048000208DF8D4
:103C20004F0002980DF14F07B0F1004F25D02B2027
:103C30000E9002984FF0020800280CDA40420290E1
:103C40002D200E9007E00A210298FCF743FC30314A
:103C5000029007F8011DB8F10001A8F10108F2DC9B
:103C600002980028EFD1791E0E980870307800F085
:103C7000200040F0450007F8020D12A8C01B00F11B
:103C800007081498007800B1012000EB0A010198A0
:103C900001EBE07105984144401A401E0590E00395
:103CA00006D45B462146179A059800F05DF8054456
:103CB0001498007818B15A46179990476D1CE00384
:103CC00024D55B462146179A059800F04DF8054427
:103CD0001CE00498002807DBDDE90301884203DDCE
:103CE0000098405C179901E0179930205A46904798
:103CF000049805F10105401C04900198401E0190B4
:103D000004D12E205A46179990476D1CBAF1000134
:103D1000AAF1010ADDDC05E017F8010B5A461799F4
:103D200090476D1CB8F10001A8F10108F4DC5B4676
:103D30002146179A0598ABE62D0000002B000000E5
:103D4000200000002DE9F041044600251E461746DC
:103D5000880404D405E039462020B0476D1C641E59
:103D6000F9D52846BDE8F0812DE9F041044600254B
:103D70001E469046C80301D5302700E0202788045E
:103D800004D505E041463846B0476D1C641EF9D5A0
:103D90002846BDE8F081000004490A685206FCD5B7
:103DA000024AC1B2121D1160704700000038014084
:103DB00010B5074A074B00F05BFD0022064BFCF7ED
:103DC000DAFABDE81040054A054BFCF72DBA0000B1
:103DD000931804560E2DFEBF80A1DA401F85EB51CB
:103DE000B81EF13FFDF750F9FEF7F1FEFEF7D4FBE8
:103DF000FEF7B4FBFEF7F6FCFEF716FCFEF752FCEE
:103E0000FEF7AAFCFEF732FDFEF74CFDFEF766FD5D
:103E1000FEF70AFD00211948FEF752F80421174861
:103E2000FEF74EF808211548FEF74AF80C21134812
:103E3000FEF746F800211248FEF742F80421104828
:103E4000FEF73EF80F480068C16841F00101C1600B
:103E50000D48FDF7D9FC0D48FDF7D6FC0C4800686D
:103E6000C16841F01001C1600A480068C16841F0B2
:103E70001001C160FEF762FDFCE700009000002029
:103E8000D000002050000020100100205001002030
:103E900090010020D00100202DE9F04D1D460C4678
:103EA00098B0174621F0004123F00043002814BFCA
:103EB0004FF0010C4FF0000C0CEB440CFE4A0CEBE5
:103EC00002064FEA620C66452BD33E0018BF01265E
:103ED00006EB45061644F94A964222D3F84A53EABD
:103EE000070C02D0944205D148B918B00020114601
:103EF000BDE8F08D002808BF4FF0000C01D04FF056
:103F0000010C0CEB440212F5001F0AD8002F14BF5D
:103F10004FF0010C4FF0000C0CEB450212F5001FA6
:103F200007D918B03A462B462146BDE8F04DFFF7B9
:103F3000ABBA0022DFF88CA3002CB8BF534526DAB9
:103F4000DFF884C36345A8BF022220DADFF870C31C
:103F50009C451CDCDFF874C30CEB235CBCF1140F34
:103F600008DDCCF1340627FA06FC0CFA06F6BE4250
:103F70000DD108E05FB9CCF1140623FA06FC0CFA67
:103F800006F69E4203D10CF00102C2F1020251EA90
:103F9000000C19D1002D17DA002C18BF022A01D00D
:103FA000012A07D00220FFF797FA18B0BDE8F04DBC
:103FB000FFF762BA0220FFF78FFAFFF75DFA18B039
:103FC00081F00041BDE8F08DB7F1000C6CD1534594
:103FD00025D104F1804212F5801201BF0028002093
:103FE000B74918B008BFBDE8F08DB548884207DC76
:103FF000002DA1BF6046294618B0BDE8F08D07E04E
:10400000281E05DA80F0004118B06046BDE8F08D4A
:10401000AF497944D1E9000118B0BDE8F08DDFF86F
:10402000A0C2634525D1002D1FDA19B1514512D127
:10403000D8B909E0002840F0EC82A24A214618B025
:1040400062F31E01BDE8F08D0020214618B060F338
:104050001E01BDE8F08D08DA18B02346BDE8F04D2A
:10406000024600206146FCF731BB18B02146BDE88E
:10407000F08D514518DAB5F1804F0DD0A5F1005CF7
:10408000BCF1FF5C10D1B4F1000C0DDB18B061463F
:10409000BDE8F04D00F0EEBB234618B00246BDE887
:1040A000F04D1946FCF767B9060024F0004C3BD1EF
:1040B000D9B1514533D1002C06DD002DA1BF002020
:1040C000514618B0BDE8F08D002C01DD002D1BDB42
:1040D000002C13DA002D11DB012A4FF0000014BF71
:1040E00078497C4918B0BDE8F08D022A18BF002C31
:1040F0000AD0012A08D1002C06DA0AE0002CB8BF49
:10410000002D11DA012A04D0002018B00146BDE8C4
:10411000F08D18B000204FF00041BDE8F08DA1F106
:104120004050B0F17F601AD0012000EBE47050EAFB
:10413000020421D0624C521E4FF0000B104304BF0A
:104140004FF0000B644C654883427CDD644A65484F
:1041500093421FDD884217DB002D25DB37E0002C62
:1041600000DA4AB1022A0CBF01204FF0FF3018B02C
:10417000BDE8F04DFCF773BB0120FFF7ADF918B0B7
:10418000BDE8F04DFFF782B94D4A8A4202DC002DAE
:104190000ADC1CE0814202DA002D18DA04E0484B08
:1041A000994220DD002D12DD0220FFF795F9FFF77F
:1041B00073F905460E460022534658462146FCF741
:1041C000DAF818B066F31E012846BDE8F08D02202B
:1041D000FFF782F9FFF768F90A46214618B062F343
:1041E0001E01BDE8F08D002230466146FCF7BDF8A7
:1041F00080460E466FF00102FCF71AFB4FF0553275
:10420000394BFCF7B5F842463346FCF7B4F80022C8
:10421000364BFCF7ADF882464246334604911046D1
:104220001946FCF7A8F85246049BFCF7A4F88A4606
:1042300000904FF0C0422E4B40463146FCF79BF8B1
:104240002C4A2B4B00E027E0CDE9060151460098AF
:10425000FCF791F882460191274A284B40463146A7
:10426000FCF789F85246019BFCF77FF882460B4623
:1042700002460591DDE90601FBF7D6FFDDE90623DD
:10428000002688463046FCF770F85246059BFCF73E
:104290006FF8024600F07EB90020B1F5801F07DA02
:1042A000352230466146FCF7C3FA06466FF034000B
:1042B00000EB215024E00000FFFF1F00FFFF0F0074
:1042C0000000F03F0000F07F0000404301FCFFFFD2
:1042D0004A0900000000F0FF0000F0BF0000E041CC
:1042E0000000F043FFFFEF3F5555D53F0000E03F92
:1042F0004715F73FFE822B6544DF5DF80BAE543E59
:10430000A0F2FF300190C1F3130040F07F6141F053
:1043100040510291FE498842D8BF002004DDFD498A
:104320008142C8BF012001DD0D9008E000200D9002
:104330000198401C01900298A0F58010029002990B
:10434000F54878440B910D9900EBC100D0E90023AA
:104350000F9330460A920B99FCF707F8CDE9060156
:10436000DDE90A2130460F9BFBF75EFF02460B4654
:104370000020EA49FCF7AAF9059102460B46009095
:10438000DDE90601FBF7F7FF1490E5488A464FF098
:10439000000878440299006812904FF0005040EAFB
:1043A00061010D980F9B01EB804000F50021099100
:1043B0000A9A1298FBF7D9FF32460B9BFBF7D8FFFE
:1043C00042465346FBF7D7FF064602914046514608
:1043D000099B129AFBF7CFFFDDE90623FBF7C8FF25
:1043E0003246029BFBF7C1FF059B009AFBF7C3FF18
:1043F0000091149A0490534610461946FBF7BBFFF0
:1044000006460246C7480B46029106217844FEF74D
:10441000DDFFCDE90510029B324610461946FBF739
:10442000AAFFDDE90532FBF7A6FF059106465346D4
:1044300040461946149AFBF7F7FE009B049AFBF7D7
:104440009AFF3246059BFBF7EFFECDE90510424689
:10445000534610461946FBF78EFF0022B24B0291DD
:104460000A90FBF7E1FEDDE90532FBF7DDFE0E46C3
:104470004246AD4B4046FBF778FF029B0A9AFBF79A
:1044800074FFDDE90532FBF773FF424602910A90A3
:10449000334610465146FBF76EFFCDE90601534601
:1044A000149A02990A98FBF766FF8A4602903346EF
:1044B000424600990498FBF75EFF5346029AFBF7C9
:1044C000B3FE82460B4602460591DDE90601FBF785
:1044D000ABFEDDE90623002088460646FBF745FFD4
:1044E0005246059BFBF744FF824609914FF060421C
:1044F0008E4B30464146FBF73EFF049006918C4AB6
:104500008A4B50460999FBF736FF82460291894A49
:10451000894B30464146FBF72EFF5246029BFBF784
:1045200083FE864B7B440D9A03EBC203D3E9002341
:10453000FBF77AFE0E9007910198FCF790F9059130
:10454000DDE9061382460E9A0498FBF76DFE7C4A5D
:104550007A440D9B02EBC303D3E90023009302923C
:10456000FBF762FE5246059BFBF75EFE002688467F
:1045700052463046059BFBF7F8FE009B029AFBF77C
:10458000F4FE069B049AFBF7F0FE079B0E9AFBF7DE
:10459000EFFE024600200B46029038462946FBF704
:1045A000EAFE824601912B4638461946029AFBF7ED
:1045B000DCFE32464346FBF7DEFE5246019BFBF72C
:1045C00033FE07468A463246434629460298FBF7A1
:1045D000D2FE05460E463A465346FBF725FE594A9B
:1045E0008846914221DBA8EB020353EA000210D176
:1045F0002A463346FBF7B9FECDE90401524A534B34
:1046000038465146FBF710FEDDE90423FCF7E6F8D7
:1046100021D20220FEF760FFFEF73EFF0A46214648
:1046200018B062F31E01BDE8F08D494B28F000423E
:104630009A4210D3474A08EB020353EA00027FF480
:10464000C6AD2A463346FBF790FE3A465346FCF782
:10465000C5F87FF6BCAD0022019228F000403E492B
:104660003E4A01EB2051824223DA481C4FF480116C
:1046700021FA00F040443A4AC0F30A517A44394BD7
:10468000A1F2FF31CB4020EA0303C0F3130040F452
:104690008010C1F11401C84012680190B8F1000FF8
:1046A000BCBF4042019028463146FBF75EFE0546FE
:1046B0000E462A46334638465146FBF7B5FD4FF0C5
:1046C00000084246284B40460591FBF754FECDE9D1
:1046D0000601264A264B40460599FBF74CFE009101
:1046E00002902A46334640460599FBF73EFE3A467D
:1046F0005346FBF73DFE1F4A1F4BFBF73CFE009B5A
:10470000029AFBF791FD0746884602460B4635E0C4
:104710008E9803007AB60B00920500000000F03F6F
:10472000CA050000F80400000000084009C7EE3F79
:10473000FD033ADCF5015B14E02F3EBED003000020
:104740009403000000009040FE822B654715973CC3
:1047500000CC904000346F3F01FCFFFF0000E03FC1
:10476000E0020000FFFF0F00432EE63F396CA80C6B
:10477000615C20BEEF39FAFE422EE63FDDE906011C
:10478000FBF752FDDDE9062305460E46FBF7EDFD7E
:104790003A464346FBF7ECFD0F462A463346009067
:1047A00010461946FBF7E7FD824602462E4888462A
:1047B0000B4605217844FEF709FE52464346FBF7B7
:1047C000DAFD2A463346FBF7D3FD80468A463B4650
:1047D00028463146009AFBF7CEFD3B46009AFBF790
:1047E00023FD0691009000224FF080434046514641
:1047F000FBF7BBFD0F460C90424653462846314618
:10480000FBF7B9FD3B460C9AFBF760FF069B009A4D
:10481000FBF7ABFD2A463346FBF7A7FD0022134BFF
:10482000FBF7A6FD054601980E4601EB0051081561
:10483000002810DC28463146019AFBF7F9FFFEF705
:10484000B1FD042808BFFEF72FFE28463146019A25
:10485000FBF7EEFF05460B4618B02A4658462146A0
:10486000BDE8F04DFBF787BD800100000000F03F80
:10487000FFF712BB2DE9F04106460F46FCF700F8A2
:10488000041E0D4618BF0120284320F00040C0F14F
:104890007F6000F1E040C00F0ED0301C18BF012037
:1048A000384320F00040C0F17F6000F1E040C00FCD
:1048B00004BF0120FEF710FE20462946BDE8F08126
:1048C00000000000000000000102030406070809C0
:1048D0000000000001020304000000000000F03F9F
:1048E000000000000000F83F000000000000000091
:1048F0000000004003B8E23F00000000000000009C
:1049000006D0CF43EBFD4C3E033333333333E33F29
:10491000FFAB6FDBB66DDB3F4D268F515555D53F55
:1049200001411DA96074D13F65DBC9934A86CD3F23
:10493000EF4E454A287ECA3F3E5555555555C53F11
:1049400093BDBE166CC166BF2CDE25AF6A56113F03
:10495000F16BD2C541BDBBBED0A4BE726937663E05
:10496000000000000000000088490008000000204E
:1049700028000000B8340008B049000828000020D2
:1049800010070000C834000800000000FFFFFF000F
:104990000000000000000000010000001000000006
:1049A0000000000000A24A04000000000000000017
:0400000508000131BD
:00000001FF
